{
  "contractName": "RTISystem",
  "abi": [
    {
      "inputs": [],
      "stateMutability": "nonpayable",
      "type": "constructor"
    },
    {
      "anonymous": false,
      "inputs": [
        {
          "indexed": true,
          "internalType": "uint256",
          "name": "requestId",
          "type": "uint256"
        },
        {
          "indexed": false,
          "internalType": "string",
          "name": "officerUserId",
          "type": "string"
        }
      ],
      "name": "RequestAssigned",
      "type": "event"
    },
    {
      "anonymous": false,
      "inputs": [
        {
          "indexed": true,
          "internalType": "uint256",
          "name": "requestId",
          "type": "uint256"
        },
        {
          "indexed": false,
          "internalType": "string",
          "name": "clientUserId",
          "type": "string"
        },
        {
          "indexed": false,
          "internalType": "string",
          "name": "requestHash",
          "type": "string"
        }
      ],
      "name": "RequestCreated",
      "type": "event"
    },
    {
      "anonymous": false,
      "inputs": [
        {
          "indexed": true,
          "internalType": "uint256",
          "name": "requestId",
          "type": "uint256"
        },
        {
          "indexed": false,
          "internalType": "string",
          "name": "responseHash",
          "type": "string"
        }
      ],
      "name": "RequestResponded",
      "type": "event"
    },
    {
      "inputs": [],
      "name": "requestCount",
      "outputs": [
        {
          "internalType": "uint256",
          "name": "",
          "type": "uint256"
        }
      ],
      "stateMutability": "view",
      "type": "function"
    },
    {
      "inputs": [
        {
          "internalType": "uint256",
          "name": "",
          "type": "uint256"
        }
      ],
      "name": "requests",
      "outputs": [
        {
          "internalType": "uint256",
          "name": "id",
          "type": "uint256"
        },
        {
          "internalType": "string",
          "name": "clientUserId",
          "type": "string"
        },
        {
          "internalType": "string",
          "name": "requestHash",
          "type": "string"
        },
        {
          "internalType": "string",
          "name": "description",
          "type": "string"
        },
        {
          "internalType": "string",
          "name": "assignedOfficerUserId",
          "type": "string"
        },
        {
          "internalType": "string",
          "name": "responseHash",
          "type": "string"
        },
        {
          "internalType": "enum RTISystem.RequestStatus",
          "name": "status",
          "type": "uint8"
        },
        {
          "internalType": "uint256",
          "name": "createdAt",
          "type": "uint256"
        },
        {
          "internalType": "uint256",
          "name": "assignedAt",
          "type": "uint256"
        },
        {
          "internalType": "uint256",
          "name": "respondedAt",
          "type": "uint256"
        }
      ],
      "stateMutability": "view",
      "type": "function"
    },
    {
      "inputs": [
        {
          "internalType": "string",
          "name": "_clientUserId",
          "type": "string"
        },
        {
          "internalType": "string",
          "name": "_requestHash",
          "type": "string"
        },
        {
          "internalType": "string",
          "name": "_description",
          "type": "string"
        }
      ],
      "name": "createRequest",
      "outputs": [],
      "stateMutability": "nonpayable",
      "type": "function"
    },
    {
      "inputs": [
        {
          "internalType": "uint256",
          "name": "_requestId",
          "type": "uint256"
        },
        {
          "internalType": "string",
          "name": "_officerUserId",
          "type": "string"
        }
      ],
      "name": "assignRequest",
      "outputs": [],
      "stateMutability": "nonpayable",
      "type": "function"
    },
    {
      "inputs": [
        {
          "internalType": "uint256",
          "name": "_requestId",
          "type": "uint256"
        },
        {
          "internalType": "string",
          "name": "_officerUserId",
          "type": "string"
        },
        {
          "internalType": "string",
          "name": "_responseHash",
          "type": "string"
        }
      ],
      "name": "submitResponse",
      "outputs": [],
      "stateMutability": "nonpayable",
      "type": "function"
    },
    {
      "inputs": [
        {
          "internalType": "uint256",
          "name": "_requestId",
          "type": "uint256"
        }
      ],
      "name": "getRequest",
      "outputs": [
        {
          "components": [
            {
              "internalType": "uint256",
              "name": "id",
              "type": "uint256"
            },
            {
              "internalType": "string",
              "name": "clientUserId",
              "type": "string"
            },
            {
              "internalType": "string",
              "name": "requestHash",
              "type": "string"
            },
            {
              "internalType": "string",
              "name": "description",
              "type": "string"
            },
            {
              "internalType": "string",
              "name": "assignedOfficerUserId",
              "type": "string"
            },
            {
              "internalType": "string",
              "name": "responseHash",
              "type": "string"
            },
            {
              "internalType": "enum RTISystem.RequestStatus",
              "name": "status",
              "type": "uint8"
            },
            {
              "internalType": "uint256",
              "name": "createdAt",
              "type": "uint256"
            },
            {
              "internalType": "uint256",
              "name": "assignedAt",
              "type": "uint256"
            },
            {
              "internalType": "uint256",
              "name": "respondedAt",
              "type": "uint256"
            }
          ],
          "internalType": "struct RTISystem.RTIRequest",
          "name": "",
          "type": "tuple"
        }
      ],
      "stateMutability": "view",
      "type": "function"
    },
    {
      "inputs": [
        {
          "internalType": "enum RTISystem.RequestStatus",
          "name": "_status",
          "type": "uint8"
        }
      ],
      "name": "getRequestsByStatus",
      "outputs": [
        {
          "components": [
            {
              "internalType": "uint256",
              "name": "id",
              "type": "uint256"
            },
            {
              "internalType": "string",
              "name": "clientUserId",
              "type": "string"
            },
            {
              "internalType": "string",
              "name": "requestHash",
              "type": "string"
            },
            {
              "internalType": "string",
              "name": "description",
              "type": "string"
            },
            {
              "internalType": "string",
              "name": "assignedOfficerUserId",
              "type": "string"
            },
            {
              "internalType": "string",
              "name": "responseHash",
              "type": "string"
            },
            {
              "internalType": "enum RTISystem.RequestStatus",
              "name": "status",
              "type": "uint8"
            },
            {
              "internalType": "uint256",
              "name": "createdAt",
              "type": "uint256"
            },
            {
              "internalType": "uint256",
              "name": "assignedAt",
              "type": "uint256"
            },
            {
              "internalType": "uint256",
              "name": "respondedAt",
              "type": "uint256"
            }
          ],
          "internalType": "struct RTISystem.RTIRequest[]",
          "name": "",
          "type": "tuple[]"
        }
      ],
      "stateMutability": "view",
      "type": "function"
    }
  ],
  "bytecode": "0x608060405234801561001057600080fd5b50611746806100206000396000f3fe608060405234801561001057600080fd5b506004361061007d5760003560e01c8063a97c275b1161005b578063a97c275b146100dc578063c58343ef146100fc578063d1c494101461011c578063f6d595aa1461012f57600080fd5b80635badbe4c146100825780637496d3761461009e57806381d12c58146100b3575b600080fd5b61008b60015481565b6040519081526020015b60405180910390f35b6100b16100ac366004611139565b610142565b005b6100c66100c13660046111c1565b6102e5565b6040516100959a99989796959493929190611258565b6100ef6100ea3660046112f5565b6105df565b60405161009591906113e3565b61010f61010a3660046111c1565b610a84565b6040516100959190611445565b6100b161012a366004611458565b610ddf565b6100b161013d36600461149f565b610ed5565b60018054906000610152836114d3565b91905055506040518061014001604052806001548152602001848152602001838152602001828152602001604051806020016040528060008152508152602001604051806020016040528060008152508152602001600060038111156101ba576101ba611220565b815260200142815260200160008152602001600081525060008060015481526020019081526020016000206000820151816000015560208201518160010190816102049190611583565b50604082015160028201906102199082611583565b506060820151600382019061022e9082611583565b50608082015160048201906102439082611583565b5060a082015160058201906102589082611583565b5060c082015160068201805460ff1916600183600381111561027c5761027c611220565b021790555060e08201518160070155610100820151816008015561012082015181600901559050506001547f2f218e1b6533efe437f7a6dafaf76a0a09f1f245838d66142e6cbd7af541ecf484846040516102d8929190611643565b60405180910390a2505050565b60006020819052908152604090208054600182018054919291610307906114fa565b80601f0160208091040260200160405190810160405280929190818152602001828054610333906114fa565b80156103805780601f1061035557610100808354040283529160200191610380565b820191906000526020600020905b81548152906001019060200180831161036357829003601f168201915b505050505090806002018054610395906114fa565b80601f01602080910402602001604051908101604052809291908181526020018280546103c1906114fa565b801561040e5780601f106103e35761010080835404028352916020019161040e565b820191906000526020600020905b8154815290600101906020018083116103f157829003601f168201915b505050505090806003018054610423906114fa565b80601f016020809104026020016040519081016040528092919081815260200182805461044f906114fa565b801561049c5780601f106104715761010080835404028352916020019161049c565b820191906000526020600020905b81548152906001019060200180831161047f57829003601f168201915b5050505050908060040180546104b1906114fa565b80601f01602080910402602001604051908101604052809291908181526020018280546104dd906114fa565b801561052a5780601f106104ff5761010080835404028352916020019161052a565b820191906000526020600020905b81548152906001019060200180831161050d57829003601f168201915b50505050509080600501805461053f906114fa565b80601f016020809104026020016040519081016040528092919081815260200182805461056b906114fa565b80156105b85780601f1061058d576101008083540402835291602001916105b8565b820191906000526020600020905b81548152906001019060200180831161059b57829003601f168201915b50505050600683015460078401546008850154600990950154939460ff909216939092508a565b6060600060015b600154811161064c5783600381111561060157610601611220565b60008281526020819052604090206006015460ff16600381111561062757610627611220565b0361063a5781610636816114d3565b9250505b80610644816114d3565b9150506105e6565b5060008167ffffffffffffffff81111561066857610668611096565b6040519080825280602002602001820160405280156106a157816020015b61068e611032565b8152602001906001900390816106865790505b509050600060015b6001548111610a7a578560038111156106c4576106c4611220565b60008281526020819052604090206006015460ff1660038111156106ea576106ea611220565b03610a68576000818152602081815260409182902082516101408101909352805483526001810180549192840191610721906114fa565b80601f016020809104026020016040519081016040528092919081815260200182805461074d906114fa565b801561079a5780601f1061076f5761010080835404028352916020019161079a565b820191906000526020600020905b81548152906001019060200180831161077d57829003601f168201915b505050505081526020016002820180546107b3906114fa565b80601f01602080910402602001604051908101604052809291908181526020018280546107df906114fa565b801561082c5780601f106108015761010080835404028352916020019161082c565b820191906000526020600020905b81548152906001019060200180831161080f57829003601f168201915b50505050508152602001600382018054610845906114fa565b80601f0160208091040260200160405190810160405280929190818152602001828054610871906114fa565b80156108be5780601f10610893576101008083540402835291602001916108be565b820191906000526020600020905b8154815290600101906020018083116108a157829003601f168201915b505050505081526020016004820180546108d7906114fa565b80601f0160208091040260200160405190810160405280929190818152602001828054610903906114fa565b80156109505780601f1061092557610100808354040283529160200191610950565b820191906000526020600020905b81548152906001019060200180831161093357829003601f168201915b50505050508152602001600582018054610969906114fa565b80601f0160208091040260200160405190810160405280929190818152602001828054610995906114fa565b80156109e25780601f106109b7576101008083540402835291602001916109e2565b820191906000526020600020905b8154815290600101906020018083116109c557829003601f168201915b5050509183525050600682015460209091019060ff166003811115610a0957610a09611220565b6003811115610a1a57610a1a611220565b81526020016007820154815260200160088201548152602001600982015481525050838381518110610a4e57610a4e611671565b60200260200101819052508180610a64906114d3565b9250505b80610a72816114d3565b9150506106a9565b5090949350505050565b610a8c611032565b6000828152602081815260409182902082516101408101909352805483526001810180549192840191610abe906114fa565b80601f0160208091040260200160405190810160405280929190818152602001828054610aea906114fa565b8015610b375780601f10610b0c57610100808354040283529160200191610b37565b820191906000526020600020905b815481529060010190602001808311610b1a57829003601f168201915b50505050508152602001600282018054610b50906114fa565b80601f0160208091040260200160405190810160405280929190818152602001828054610b7c906114fa565b8015610bc95780601f10610b9e57610100808354040283529160200191610bc9565b820191906000526020600020905b815481529060010190602001808311610bac57829003601f168201915b50505050508152602001600382018054610be2906114fa565b80601f0160208091040260200160405190810160405280929190818152602001828054610c0e906114fa565b8015610c5b5780601f10610c3057610100808354040283529160200191610c5b565b820191906000526020600020905b815481529060010190602001808311610c3e57829003601f168201915b50505050508152602001600482018054610c74906114fa565b80601f0160208091040260200160405190810160405280929190818152602001828054610ca0906114fa565b8015610ced5780601f10610cc257610100808354040283529160200191610ced565b820191906000526020600020905b815481529060010190602001808311610cd057829003601f168201915b50505050508152602001600582018054610d06906114fa565b80601f0160208091040260200160405190810160405280929190818152602001828054610d32906114fa565b8015610d7f5780601f10610d5457610100808354040283529160200191610d7f565b820191906000526020600020905b815481529060010190602001808311610d6257829003601f168201915b5050509183525050600682015460209091019060ff166003811115610da657610da6611220565b6003811115610db757610db7611220565b8152600782015460208201526008820154604082015260099091015460609091015292915050565b60008281526020819052604081206006015460ff166003811115610e0557610e05611220565b14610e575760405162461bcd60e51b815260206004820152601860248201527f5265717565737420616c72656164792061737369676e6564000000000000000060448201526064015b60405180910390fd5b6000828152602081905260409020600401610e728282611583565b506000828152602081905260409081902060068101805460ff19166001179055426008909101555182907f900ca71779cd0e5ae6d4c3f02dace45a811031ca77cf1ba0b72e8894f6a8120190610ec9908490611687565b60405180910390a25050565b600160008481526020819052604090206006015460ff166003811115610efd57610efd611220565b14610f415760405162461bcd60e51b815260206004820152601460248201527314995c5d595cdd081b9bdd08185cdcda59db995960621b6044820152606401610e4e565b8180519060200120600080858152602001908152602001600020600401604051610f6b919061169a565b604051809103902014610fc05760405162461bcd60e51b815260206004820152601c60248201527f4e6f742061737369676e656420746f2074686973206f666669636572000000006044820152606401610e4e565b6000838152602081905260409020600501610fdb8282611583565b506000838152602081905260409081902060068101805460ff19166002179055426009909101555183907fa3921f588c34be90bf1647cd610d08e4b6dcee5c9082fbc83e5a4fe84706b706906102d8908490611687565b6040518061014001604052806000815260200160608152602001606081526020016060815260200160608152602001606081526020016000600381111561107b5761107b611220565b81526020016000815260200160008152602001600081525090565b634e487b7160e01b600052604160045260246000fd5b600082601f8301126110bd57600080fd5b813567ffffffffffffffff808211156110d8576110d8611096565b604051601f8301601f19908116603f0116810190828211818310171561110057611100611096565b8160405283815286602085880101111561111957600080fd5b836020870160208301376000602085830101528094505050505092915050565b60008060006060848603121561114e57600080fd5b833567ffffffffffffffff8082111561116657600080fd5b611172878388016110ac565b9450602086013591508082111561118857600080fd5b611194878388016110ac565b935060408601359150808211156111aa57600080fd5b506111b7868287016110ac565b9150509250925092565b6000602082840312156111d357600080fd5b5035919050565b6000815180845260005b81811015611200576020818501810151868301820152016111e4565b506000602082860101526020601f19601f83011685010191505092915050565b634e487b7160e01b600052602160045260246000fd5b6004811061125457634e487b7160e01b600052602160045260246000fd5b9052565b60006101408c83528060208401526112728184018d6111da565b90508281036040840152611286818c6111da565b9050828103606084015261129a818b6111da565b905082810360808401526112ae818a6111da565b905082810360a08401526112c281896111da565b9150506112d260c0830187611236565b8460e083015283610100830152826101208301529b9a5050505050505050505050565b60006020828403121561130757600080fd5b81356004811061131657600080fd5b9392505050565b600061014082518452602083015181602086015261133d828601826111da565b9150506040830151848203604086015261135782826111da565b9150506060830151848203606086015261137182826111da565b9150506080830151848203608086015261138b82826111da565b91505060a083015184820360a08601526113a582826111da565b91505060c08301516113ba60c0860182611236565b5060e0838101519085015261010080840151908501526101209283015192909301919091525090565b6000602080830181845280855180835260408601915060408160051b870101925083870160005b8281101561143857603f1988860301845261142685835161131d565b9450928501929085019060010161140a565b5092979650505050505050565b602081526000611316602083018461131d565b6000806040838503121561146b57600080fd5b82359150602083013567ffffffffffffffff81111561148957600080fd5b611495858286016110ac565b9150509250929050565b6000806000606084860312156114b457600080fd5b83359250602084013567ffffffffffffffff8082111561118857600080fd5b6000600182016114f357634e487b7160e01b600052601160045260246000fd5b5060010190565b600181811c9082168061150e57607f821691505b60208210810361152e57634e487b7160e01b600052602260045260246000fd5b50919050565b601f82111561157e57600081815260208120601f850160051c8101602086101561155b5750805b601f850160051c820191505b8181101561157a57828155600101611567565b5050505b505050565b815167ffffffffffffffff81111561159d5761159d611096565b6115b1816115ab84546114fa565b84611534565b602080601f8311600181146115e657600084156115ce5750858301515b600019600386901b1c1916600185901b17855561157a565b600085815260208120601f198616915b82811015611615578886015182559484019460019091019084016115f6565b50858210156116335787850151600019600388901b60f8161c191681555b5050505050600190811b01905550565b60408152600061165660408301856111da565b828103602084015261166881856111da565b95945050505050565b634e487b7160e01b600052603260045260246000fd5b60208152600061131660208301846111da565b60008083546116a8816114fa565b600182811680156116c057600181146116d557611704565b60ff1984168752821515830287019450611704565b8760005260208060002060005b858110156116fb5781548a8201529084019082016116e2565b50505082870194505b5092969550505050505056fea264697066735822122087a043ad2bdde171cb3c1e580a6432b6e8ad316cf1222cf18cbec699a786a20c64736f6c63430008130033",
  "immutableReferences": {},
  "source": "// SPDX-License-Identifier: MIT\r\npragma solidity ^0.8.19;\r\n\r\ncontract RTISystem {\r\n    enum RequestStatus { Pending, Assigned, Responded, Completed }\r\n\r\n    // This contract is now app-ID driven. Server signs all txs.\r\n    struct RTIRequest {\r\n        uint256 id;\r\n        string clientUserId; // App-level user ID of client\r\n        string requestHash;  // IPFS hash for request file\r\n        string description;\r\n        string assignedOfficerUserId; // App-level user ID of officer\r\n        string responseHash; // IPFS hash for response file\r\n        RequestStatus status;\r\n        uint256 createdAt;\r\n        uint256 assignedAt;\r\n        uint256 respondedAt;\r\n    }\r\n\r\n    mapping(uint256 => RTIRequest) public requests;\r\n    uint256 public requestCount;\r\n\r\n    event RequestCreated(uint256 indexed requestId, string clientUserId, string requestHash);\r\n    event RequestAssigned(uint256 indexed requestId, string officerUserId);\r\n    event RequestResponded(uint256 indexed requestId, string responseHash);\r\n\r\n    constructor() {}\r\n\r\n    function createRequest(string memory _clientUserId, string memory _requestHash, string memory _description) public {\r\n        requestCount++;\r\n        requests[requestCount] = RTIRequest({\r\n            id: requestCount,\r\n            clientUserId: _clientUserId,\r\n            requestHash: _requestHash,\r\n            description: _description,\r\n            assignedOfficerUserId: \"\",\r\n            responseHash: \"\",\r\n            status: RequestStatus.Pending,\r\n            createdAt: block.timestamp,\r\n            assignedAt: 0,\r\n            respondedAt: 0\r\n        });\r\n\r\n        emit RequestCreated(requestCount, _clientUserId, _requestHash);\r\n    }\r\n\r\n    function assignRequest(uint256 _requestId, string memory _officerUserId) public {\r\n        require(requests[_requestId].status == RequestStatus.Pending, \"Request already assigned\");\r\n\r\n        requests[_requestId].assignedOfficerUserId = _officerUserId;\r\n        requests[_requestId].status = RequestStatus.Assigned;\r\n        requests[_requestId].assignedAt = block.timestamp;\r\n\r\n        emit RequestAssigned(_requestId, _officerUserId);\r\n    }\r\n\r\n    function submitResponse(uint256 _requestId, string memory _officerUserId, string memory _responseHash) public {\r\n        require(requests[_requestId].status == RequestStatus.Assigned, \"Request not assigned\");\r\n        require(keccak256(bytes(requests[_requestId].assignedOfficerUserId)) == keccak256(bytes(_officerUserId)), \"Not assigned to this officer\");\r\n\r\n        requests[_requestId].responseHash = _responseHash;\r\n        requests[_requestId].status = RequestStatus.Responded;\r\n        requests[_requestId].respondedAt = block.timestamp;\r\n\r\n        emit RequestResponded(_requestId, _responseHash);\r\n    }\r\n\r\n    function getRequest(uint256 _requestId) public view returns (RTIRequest memory) {\r\n        return requests[_requestId];\r\n    }\r\n\r\n    function getRequestsByStatus(RequestStatus _status) public view returns (RTIRequest[] memory) {\r\n        uint256 count = 0;\r\n        for (uint256 i = 1; i <= requestCount; i++) {\r\n            if (requests[i].status == _status) {\r\n                count++;\r\n            }\r\n        }\r\n\r\n        RTIRequest[] memory result = new RTIRequest[](count);\r\n        uint256 index = 0;\r\n        for (uint256 i = 1; i <= requestCount; i++) {\r\n            if (requests[i].status == _status) {\r\n                result[index] = requests[i];\r\n                index++;\r\n            }\r\n        }\r\n        return result;\r\n    }\r\n}",
  "sourcePath": "C:\\Users\\AVIRUP\\Desktop\\rti-blockchain-system\\contracts\\RTISystem.sol",
  "compiler": {
    "name": "solc",
    "version": "0.8.19+commit.7dd6d404.Emscripten.clang"
  },
  "schemaVersion": "3.4.16",
  "updatedAt": "2025-11-04T13:31:21.051Z",
  "devdoc": {
    "kind": "dev",
    "methods": {},
    "version": 1
  },
  "userdoc": {
    "kind": "user",
    "methods": {},
    "version": 1
  }
}